:100000000C9434000C9449000C9449000C94490061
:100010000C9449000C9449000C9449000C9449003C
:100020000C9449000C9449000C9449000C9449002C
:100030000C9449000C9449000C9449000C9449001C
:100040000C9449000C9449000C9449000C9449000C
:100050000C9449000C9449000C9449000C944900FC
:100060000C9449000C94490011241FBECFEFD8E036
:10007000DEBFCDBF11E0A0E0B1E0EAE2F1E002C0F6
:1000800005900D92A231B107D9F70E9480000C941F
:1000900093000C9400000895089560E070E080E003
:1000A00090E0089560E070E080E090E0089560E006
:1000B00070E080E090E0089560E070E080E090E023
:1000C000089560E070E080E090E0089560E070E006
:1000D00080E090E0089560E070E080E090E00895B6
:1000E000089560E070E080E090E00895089580E079
:1000F0000895089580E0089580E0089580E00895CF
:100100000F92CDB7DEB7CE0101960E944B00CE0113
:1001100001960E944D00CE0101960E944C0090E095
:0A01200080E00F900895F894FFCFDF
:10012A0080201000010304050E04050607080010CC
:02013A00F0FFD4
:00000001FF
